:020000040800F2
:1000000000280020E50A0008890A00088F0A000875
:10001000950A00089B0A0008A10A000800000000D9
:10002000000000000000000000000000A70A000817
:10003000B30A000800000000BF0A0008CB0A00084D
:100040002D0B00082D0B00082D0B00082D0B0008B0
:100050002D0B00082D0B00082D0B00082D0B0008A0
:100060002D0B00082D0B00082D0B00082D0B000890
:100070002D0B00082D0B00082D0B00082D0B000880
:100080002D0B00082D0B00082D0B00082D0B000870
:100090002D0B00082D0B00082D0B00082D0B000860
:1000A0002D0B00082D0B00082D0B00082D0B000850
:1000B0002D0B00082D0B0008000000002D0B000880
:1000C0002D0B000800000000000000002D0B0008B0
:1000D000000000002D0B00082D0B000800000000A0
:1000E0002D0B00082D0B00082D0B00080000000050
:1000F0000000000000000000000000000000000000
:0C01000000000000000000005FF808F1A3
:10010C0010B5054C237833B9044B13B10448AFF345
:10011C0000800123237010BD2C0000200000000083
:10012C003819000808B5034B1BB103490348AFF35A
:10013C00008008BD000000003000002038190008C5
:10014C0080B500AF01222021104800F0CFFF012222
:10015C0080210E4800F0CAFF012240210B4800F01C
:10016C00C5FF01224FF40061084800F0BFFF0122D7
:10017C004FF48061054800F0B9FF01224FF4007183
:10018C00024800F0B3FF00BF80BD00BF0008014073
:10019C0080B500AF01224021024800F0A7FF00BF4C
:1001AC0080BD00BF0008014080B500AF0022402197
:1001BC00024800F09BFF00BF80BD00BF000801405B
:1001CC0080B500AF01228021024800F08FFF00BFF4
:1001DC0080BD00BF0008014080B500AF0022802127
:1001EC00024800F083FF00BF80BD00BF0008014043
:1001FC0080B500AF01222021024800F077FF00BF3C
:10020C0080BD00BF0008014080B500AF0022202156
:10021C00024800F06BFF00BF80BD00BF000801402A
:10022C0080B500AF01224FF40071024800F05EFF70
:10023C0000BF80BD0008014080B500AF00224FF424
:10024C000071024800F052FF00BF80BD0008014061
:10025C0080B500AF01224FF48061024800F046FFE8
:10026C0000BF80BD0008014080B500AF00224FF4F4
:10027C008061024800F03AFF00BF80BD00080140D9
:10028C0080B500AF01224FF40061024800F02EFF50
:10029C0000BF80BD0008014080B500AF00224FF4C4
:1002AC000061024800F022FF00BF80BD0008014041
:1002BC0080B582B000AF78607B68052B00F2EE80D1
:1002CC0001A252F823F000BFED020008370300082A
:1002DC0081030008CB030008150400085F04000824
:1002EC0000220121704800F001FF002202216E481B
:1002FC0000F0FCFE002204216B4800F0F7FE002207
:10030C008021694800F0F2FE00224FF480716648AB
:10031C0000F0ECFE00222021634800F0E7FE0122F1
:10032C004021614800F0E2FEB9E0012201215E4863
:10033C0000F0DCFE002202215B4800F0D7FE002218
:10034C000421594800F0D2FE01228021564800F0C9
:10035C00CDFE01224FF48071534800F0C7FE0122FC
:10036C002021514800F0C2FE012240214E4800F0ED
:10037C00BDFE94E0002201214B4800F0B7FE0022A4
:10038C000221494800F0B2FE01220421464800F047
:10039C00ADFE00228021444800F0A8FE00224FF45C
:1003AC008071414800F0A2FE012220213E4800F05D
:1003BC009DFE002240213C4800F098FE6FE0002298
:1003CC000121394800F092FE00220221364800F04B
:1003DC008DFE00220421344800F088FE002280218A
:1003EC00314800F083FE01224FF480712E4800F05A
:1003FC007DFE012220212C4800F078FE00224021B5
:10040C00294800F073FE4AE001220121264800F041
:10041C006DFE00220221244800F068FE0022042117
:10042C00214800F063FE012280211F4800F05EFE8F
:10043C0001224FF480711C4800F058FE002220214C
:10044C00194800F053FE00224021174800F04EFEE0
:10045C0025E000220121144800F048FE012202216F
:10046C00114800F043FE002204210F4800F03EFE2C
:10047C00002280210C4800F039FE01224FF48071DB
:10048C00094800F033FE00222021074800F02EFE20
:10049C0000224021044800F029FE00E000BF00BF0C
:1004AC000837BD4680BD00BF000C014080B582B04E
:1004BC0000AF78607B68052B00F2128101A252F824
:1004CC0023F000BFE90400083F050008950500086B
:1004DC00EB050008410600089706000800224FF4BF
:1004EC000071824800F002FE00224FF480617F48C8
:1004FC0000F0FCFD00224FF400617C4800F0F6FD9A
:10050C0000224FF48051794800F0F0FD00224FF4A6
:10051C000051764800F0EAFD00224FF48041734808
:10052C0000F0E4FD01224FF40041704800F0DEFDC4
:10053C00D7E001224FF400716C4800F0D7FD002287
:10054C004FF48061694800F0D1FD00224FF4006146
:10055C00664800F0CBFD01224FF48051634800F057
:10056C00C5FD01224FF40051604800F0BFFD01228F
:10057C004FF480415D4800F0B9FD01224FF4004179
:10058C005A4800F0B3FDACE000224FF4007157481C
:10059C0000F0ACFD00224FF48061544800F0A6FD41
:1005AC0001224FF40061514800F0A0FD00224FF4ED
:1005BC0080514E4800F09AFD00224FF400514B48F8
:1005CC0000F094FD01224FF48041484800F08EFD6C
:1005DC0000224FF40041454800F088FD81E00022E4
:1005EC004FF40071414800F081FD00224FF480610E
:1005FC003E4800F07BFD00224FF400613B4800F0C8
:10060C0075FD00224FF48051384800F06FFD012237
:10061C004FF40051354800F069FD01224FF4804140
:10062C00324800F063FD00224FF400412F4800F0E7
:10063C005DFD56E001224FF400712C4800F056FD90
:10064C0000224FF48061294800F050FD00224FF445
:10065C000061264800F04AFD01224FF480512348E6
:10066C0000F044FD01224FF40051204800F03EFD03
:10067C0000224FF480411D4800F038FD00224FF459
:10068C0000411A4800F032FD2BE000224FF40071BB
:10069C00164800F02BFD01224FF48061134800F046
:1006AC0025FD00224FF40061104800F01FFD0022D0
:1006BC004FF480510D4800F019FD01224FF4005108
:1006CC000A4800F013FD00224FF48041074800F067
:1006DC000DFD00224FF40041044800F007FD00E03E
:1006EC0000BF00BF0837BD4680BD00BF000C0140F5
:1006FC0080B500AF6C4B1B68032B42D0032B5EDC28
:10070C00012B02D0022B1ED059E0684B1B68013B19
:10071C00664A1360654B1B681846FFF7C9FDFFF767
:10072C0043FD624B1B68002B4BD15F4B02221A60BE
:10073C005E4B03221A60FFF72BFDFFF74DFD0220E5
:10074C00FFF7B6FD3DE05A4B1B68013B584A13605E
:10075C00574B1B681846FFF7ABFDFFF73DFD544B9D
:10076C001B68002B2FD1504B03221A60504B0222D6
:10077C001A60FFF725FDFFF747FD0520FFF798FDF1
:10078C0021E04C4B1B68013B4A4A1360494B1B68E8
:10079C001846FFF78DFDFFF737FD464B1B68002B06
:1007AC0013D1414B01221A60424B05221A60FFF70C
:1007BC001FFDFFF7F9FC0320FFF77AFD05E000BFF2
:1007CC0004E000BF02E000BF00E000BF3A4B1B6832
:1007DC00032B42D0032B5EDC012B02D0022B1ED04C
:1007EC0059E0364B1B68013B344A1360334B1B6892
:1007FC001846FFF75BFEFFF71FFD304B1B68002B05
:10080C004BD12D4B02221A602C4B03221A60FFF79E
:10081C0007FDFFF729FD0220FFF748FE3DE0284BBE
:10082C001B68013B264A1360254B1B681846FFF7D3
:10083C003DFEFFF719FD224B1B68002B2FD11E4BE1
:10084C0003221A601E4B02221A60FFF701FDFFF70C
:10085C0023FD0520FFF72AFE21E01A4B1B68013B04
:10086C00184A1360174B1B681846FFF71FFEFFF75B
:10087C0013FD144B1B68002B13D10F4B01221A6074
:10088C00104B05221A60FFF7FBFCFFF7D5FC032089
:10089C00FFF70CFE05E000BF04E000BF02E000BF64
:1008AC0000E000BF00BF80BD000000200C00002055
:1008BC000400002008000020100000201C00002074
:1008CC00140000201800002080B500AF00F02AF9B9
:1008DC0000F00BF800F044F8FFF732FCFFF708FFCC
:1008EC004FF47A7000F080F9F8E780B590B000AF63
:1008FC0007F1180328220021184601F00FF83B1DC0
:10090C0000221A605A609A60DA601A610223BB6195
:10091C000123BB621023FB6200237B6307F11803E6
:10092C00184600F0FBFB0346002B01D000F06EF8DC
:10093C000F237B600023BB600023FB6000233B6123
:10094C0000237B613B1D0021184600F067FE034627
:10095C00002B01D000F05AF800BF4037BD4680BDD7
:10096C0080B586B000AF07F1080300221A605A6008
:10097C009A60DA60224B9B69214A43F0040393612D
:10098C001F4B9B6903F004037B607B681C4B9B69CA
:10099C001B4A43F008039361194B9B6903F008034E
:1009AC003B603B6800224FF46E61164800F09EFBE2
:1009BC0000224FF6E771144800F098FB4FF46E6379
:1009CC00BB600123FB6000233B6102237B6107F1C9
:1009DC00080319460B4800F00FFA4FF6E773BB609B
:1009EC000123FB6000233B6102237B6107F10803B9
:1009FC001946054800F000FA00BF1837BD4680BD07
:100A0C000010024000080140000C014080B400AF0F
:100A1C0072B600BFFEE7000080B485B000AF154B86
:100A2C009B69144A43F001039361124B9B6903F0D9
:100A3C000103BB60BB680F4BDB690E4A43F080536C
:100A4C00D3610C4BDB6903F080537B607B680A4BF2
:100A5C005B68FB60FB6823F0E063FB60FB6843F0C2
:100A6C008063FB60044AFB68536000BF1437BD46CB
:100A7C0080BC7047001002400000014080B400AF01
:100A8C00FEE780B400AFFEE780B400AFFEE780B4B1
:100A9C0000AFFEE780B400AFFEE780B400AF00BF4C
:100AAC00BD4680BC704780B400AF00BFBD4680BC63
:100ABC00704780B400AF00BFBD4680BC704780B5A6
:100ACC0000AF00F075F800BF80BD80B400AF00BF70
:100ADC00BD4680BC70470000FFF7F7FF0B480C4980
:100AEC000C4A002302E0D458C4500433C4188C427E
:100AFC00F9D3094A094C002301E013600432A242E5
:100B0C00FBD300F0E7FEFFF7DFFE7047000000208C
:100B1C002C0000207C1900082C0000204C00002028
:100B2C00FEE7000080B500AF084B1B68074A43F096
:100B3C0010031360032000F02BF90F2000F008F8CD
:100B4C00FFF76AFF0023184680BD00BF002002405B
:100B5C0080B582B000AF7860124B1A68124B1B78CC
:100B6C0019464FF47A73B3FBF1F3B2FBF3F3184667
:100B7C0000F035F90346002B01D001230EE07B6811
:100B8C000F2B0AD8002279684FF0FF3000F00BF9D8
:100B9C00064A7B681360002300E0012318460837DF
:100BAC00BD4680BD2000002028000020240000202D
:100BBC0080B400AF054B1B781A46054B1B681344D9
:100BCC00034A136000BFBD4680BC7047280000205C
:100BDC004800002080B400AF024B1B681846BD468D
:100BEC0080BC70474800002080B584B000AF7860AE
:100BFC00FFF7F0FFB8607B68FB60FB68B3F1FF3F69
:100C0C0005D00A4B1B781A46FB681344FB6000BFE7
:100C1C00FFF7E0FF0246BB68D31AFA689A42F7D88E
:100C2C0000BF00BF1037BD4680BD00BF28000020AC
:100C3C0080B485B000AF78607B6803F00703FB607D
:100C4C000C4BDB68BB60BA684FF6FF031340BB600C
:100C5C00FB681A02BB68134343F0BF6343F40033D1
:100C6C00BB60044ABB68D36000BF1437BD4680BC70
:100C7C00704700BF00ED00E080B400AF044BDB68B0
:100C8C001B0A03F007031846BD4680BC704700BF23
:100C9C0000ED00E080B483B000AF03463960FB7117
:100CAC0097F90730002B0ADB3B68DAB20C4997F94D
:100CBC0007301201D2B20B4483F800230AE03B68E0
:100CCC00DAB20849FB7903F00F03043B1201D2B2EC
:100CDC000B441A7600BF0C37BD4680BC704700BF72
:100CEC0000E100E000ED00E080B489B000AFF860F6
:100CFC00B9607A60FB6803F00703FB61FB69C3F121
:100D0C000703042B28BF0423BB61FB690433062BA8
:100D1C0002D9FB69033B00E000237B614FF0FF32FB
:100D2C00BB6902FA03F3DA43BB681A407B699A4049
:100D3C004FF0FF317B6901FA03F3D9437B680B4019
:100D4C00134318462437BD4680BC704780B582B02B
:100D5C0000AF78607B68013BB3F1807F01D3012346
:100D6C000FE00A4A7B68013B53600F214FF0FF30C4
:100D7C00FFF790FF054B00229A60044B07221A6084
:100D8C00002318460837BD4680BD00BF10E000E0C8
:100D9C0080B582B000AF78607868FFF749FF00BF7C
:100DAC000837BD4680BD80B586B000AF0346B9603C
:100DBC007A60FB7300237B61FFF75EFF78617A68D2
:100DCC00B9687869FFF790FF024697F90F30114622
:100DDC001846FFF75FFF00BF1837BD4680BD80B5D2
:100DEC0082B000AF78607868FFF7B0FF0346184612
:100DFC000837BD4680BD000080B48BB000AF786072
:100E0C00396000237B6200233B6248E101227B6A4C
:100E1C0002FA03F3FB613B681B68FA691340BB6180
:100E2C00BA69FB699A4240F037813B685B68A34A18
:100E3C0093425ED0A14A934275D8A14A934258D0AE
:100E4C009F4A93426FD89F4A934252D09D4A9342F5
:100E5C0069D89D4A93424CD09B4A934263D89B4A93
:100E6C00934246D0994A93425DD8122B2AD8122B22
:100E7C0059D801A252F823F0FF0E0008D90E000831
:100E8C00EB0E00082D0F0008330F0008330F00087D
:100E9C00330F0008330F0008330F0008330F00081E
:100EAC00330F0008330F0008330F0008330F00080E
:100EBC00330F0008330F0008330F0008E10E000851
:100ECC00F50E0008824A934213D02CE03B68DB6895
:100EDC003B6229E03B68DB6804333B6224E03B68FF
:100EEC00DB6808333B621FE03B68DB680C333B621A
:100EFC001AE03B689B68002B02D104233B6213E091
:100F0C003B689B68012B05D108233B627B68FA691F
:100F1C001A6109E008233B627B68FA695A6103E0B5
:100F2C0000233B6200E000BFBB69FF2B01D87B684C
:100F3C0001E07B6804337B61BB69FF2B02D87B6AC1
:100F4C009B0002E07B6A083B9B003B617B691A6853
:100F5C000F213B6901FA03F3DB431A40396A3B6901
:100F6C0001FA03F31A437B691A603B685B6803F070
:100F7C008053002B00F09080564B9B69554A43F0F0
:100F8C0001039361534B9B6903F00103BB60BB6886
:100F9C00514A7B6A9B08023352F82330FB607B6A10
:100FAC0003F003039B000F2202FA03F3DB43FA68FE
:100FBC001340FB607B68494A93420DD07B68484ADA
:100FCC00934207D07B68474A934201D1022304E045
:100FDC00032302E0012300E000237A6A02F00302FB
:100FEC0092009340FA681343FB603B497B6A9B0871
:100FFC000233FA6841F823203B685B6803F48013E2
:10100C00002B06D0384B9A683749BB6913438B6069
:10101C0006E0354B9A68BB69DB43334913408B6060
:10102C003B685B6803F40013002B06D02E4BDA6888
:10103C002D49BB691343CB6006E02B4BDA68BB69C7
:10104C00DB4329491340CB603B685B6803F40033F6
:10105C00002B06D0244B5A682349BB6913434B60C1
:10106C0006E0214B5A68BB69DB431F4913404B60B8
:10107C003B685B6803F48033002B06D01A4B1A686C
:10108C001949BB6913430B6006E0174B1A68BB691F
:10109C00DB43154913400B607B6A01337B623B6871
:1010AC001A687B6A22FA03F3002B7FF4AFAE00BF01
:1010BC0000BF2C37BD4680BC704700BF000032100B
:1010CC00000031100000221000002110000012104E
:1010DC000000111000100240000001400008014007
:1010EC00000C0140001001400004014080B483B0AA
:1010FC0000AF78600B467B8013467B707B78002BAF
:10110C0003D07A887B681A6103E07B881A047B68B9
:10111C001A6100BF0C37BD4680BC704780B586B0E5
:10112C0000AF78607B68002B01D101236CE27B68F7
:10113C001B6803F00103002B00F08780924B5B6867
:10114C0003F00C03042B0CD08F4B5B6803F00C03E7
:10115C00082B12D18C4B5B6803F48033B3F5803FC2
:10116C000BD1894B1B6803F40033002B6CD07B68CC
:10117C005B68002B68D1012346E27B685B68B3F5A2
:10118C00803F06D1804B1B687F4A43F48033136049
:10119C002EE07B685B68002B0CD17B4B1B687A4A7A
:1011AC0023F480331360784B1B68774A23F4802335
:1011BC0013601DE07B685B68B3F5A02F0CD1724BFC
:1011CC001B68714A43F4802313606F4B1B686E4A93
:1011DC0043F4803313600BE06B4B1B686A4A23F4B7
:1011EC0080331360684B1B68674A23F480231360B9
:1011FC007B685B68002B13D0FFF7ECFC386108E0D0
:10120C00FFF7E8FC02463B69D31A642B01D9032390
:10121C00FAE15D4B1B6803F40033002BF0D014E0B3
:10122C00FFF7D8FC386108E0FFF7D4FC02463B69B5
:10123C00D31A642B01D90323E6E1534B1B6803F447
:10124C000033002BF0D100E000BF7B681B6803F07B
:10125C000203002B63D04C4B5B6803F00C03002B98
:10126C000BD0494B5B6803F00C03082B1CD1464B8D
:10127C005B6803F48033002B16D1434B1B6803F0DF
:10128C000203002B05D07B681B69012B01D00123C5
:10129C00BAE13D4B1B6823F0F8027B685B69DB000D
:1012AC00394913430B603AE07B681B69002B20D053
:1012BC00364B01221A60FFF78DFC386108E0FFF70E
:1012CC0089FC02463B69D31A022B01D903239BE10B
:1012DC002D4B1B6803F00203002BF0D02A4B1B682C
:1012EC0023F0F8027B685B69DB00274913430B6032
:1012FC0015E0264B00221A60FFF76CFC386108E001
:10130C00FFF768FC02463B69D31A022B01D9032371
:10131C007AE11D4B1B6803F00203002BF0D17B68B4
:10132C001B6803F00803002B3AD07B689B69002BE9
:10133C0019D0174B01221A60FFF74CFC386108E0FA
:10134C00FFF748FC02463B69D31A022B01D9032351
:10135C005AE10D4B5B6A03F00203002BF0D0012025
:10136C0000F09AFA1CE00A4B00221A60FFF732FCDC
:10137C0038610FE0FFF72EFC02463B69D31A022BB3
:10138C0008D9032340E100BF001002400000424294
:10139C00800442429E4B5B6A03F00203002BE9D1AE
:1013AC007B681B6803F00403002B00F0A68000236D
:1013BC00FB75974BDB6903F08053002B0DD1944BDD
:1013CC00DB69934A43F08053D361914BDB6903F0A3
:1013DC008053BB60BB680123FB758E4B1B6803F409
:1013EC008073002B18D18B4B1B688A4A43F4807393
:1013FC001360FFF7EFFB386108E0FFF7EBFB0246E9
:10140C003B69D31A642B01D90323FDE0814B1B6884
:10141C0003F48073002BF0D07B68DB68012B06D1C2
:10142C007B4B1B6A7A4A43F0010313622DE07B6805
:10143C00DB68002B0CD1764B1B6A754A23F0010339
:10144C001362734B1B6A724A23F0040313621CE091
:10145C007B68DB68052B0CD16D4B1B6A6C4A43F027
:10146C00040313626A4B1B6A694A43F0010313625B
:10147C000BE0674B1B6A664A23F001031362644B53
:10148C001B6A634A23F0040313627B68DB68002B3E
:10149C0015D0FFF79FFB38610AE0FFF79BFB024674
:1014AC003B69D31A41F28832934201D90323ABE052
:1014BC00574B1B6A03F00203002BEED014E0FFF72E
:1014CC0089FB38610AE0FFF785FB02463B69D31ABA
:1014DC0041F28832934201D9032395E04C4B1B6AAD
:1014EC0003F00203002BEED1FB7D012B05D1484B01
:1014FC00DB69474A23F08053D3617B68DB69002B9F
:10150C0000F08180424B5B6803F00C03082B61D028
:10151C007B68DB69022B46D13F4B00221A60FFF738
:10152C0059FB386108E0FFF755FB02463B69D31ABB
:10153C00022B01D9032367E0354B1B6803F00073C2
:10154C00002BF0D17B681B6AB3F5803F08D1304B80
:10155C005B6823F400327B689B682D4913434B6016
:10156C002B4B5B6823F474127B68196A7B685B6A8B
:10157C000B43274913434B60274B01221A60FFF79B
:10158C0029FB386108E0FFF725FB02463B69D31ABB
:10159C00022B01D9032337E01D4B1B6803F00073AA
:1015AC00002BF0D02FE01C4B00221A60FFF712FB2F
:1015BC00386108E0FFF70EFB02463B69D31A022B99
:1015CC0001D9032320E0124B1B6803F00073002B9E
:1015DC00F0D118E07B68DB69012B01D1012313E00A
:1015EC000B4B5B68FB60FB6803F480327B681B6A07
:1015FC009A4206D1FB6803F470127B685B6A9A42CC
:10160C0001D0012300E0002318461837BD4680BDE9
:10161C0000100240007000406000424280B584B06F
:10162C0000AF786039607B68002B01D10123D0E0DA
:10163C006A4B1B6803F007033A689A4210D9674B50
:10164C001B6823F0070265493B6813430B60634B2F
:10165C001B6803F007033A689A4201D00123B8E0F3
:10166C007B681B6803F00203002B20D07B681B688F
:10167C0003F00403002B05D0594B5B68584A43F424
:10168C00E06353607B681B6803F00803002B05D0F4
:10169C00534B5B68524A43F460535360504B5B6846
:1016AC0023F0F0027B689B684D4913434B607B68C9
:1016BC001B6803F00103002B40D07B685B68012B97
:1016CC0007D1474B1B6803F40033002B15D10123C2
:1016DC007FE07B685B68022B07D1414B1B6803F0F2
:1016EC000073002B09D1012373E03D4B1B6803F001
:1016FC000203002B01D101236BE0394B5B6823F013
:10170C0003027B685B68364913434B60FFF762FA50
:10171C00F8600AE0FFF75EFA0246FB68D31A41F262
:10172C008832934201D9032353E02D4B5B6803F0BD
:10173C000C027B685B689B009A42EBD1274B1B68C1
:10174C0003F007033A689A4210D2244B1B6823F02B
:10175C00070222493B6813430B60204B1B6803F0C4
:10176C0007033A689A4201D0012332E07B681B6878
:10177C0003F00403002B08D0194B5B6823F4E062E0
:10178C007B68DB68164913434B607B681B6803F06E
:10179C000803002B09D0124B5B6823F460527B6862
:1017AC001B69DB000E4913434B6000F021F8024625
:1017BC000B4B5B681B0903F00F030A49CB5C22FA45
:1017CC0003F3094A1360094B1B681846FFF7C0F96D
:1017DC00002318461037BD4680BD00BF00200240D4
:1017EC0000100240501900082000002024000020A6
:1017FC0080B487B000AF0023FB600023BB600023E4
:10180C007B6100237B6000233B611E4B5B68FB60AC
:10181C00FB6803F00C03042B02D0082B03D027E049
:10182C00194B3B6127E0FB689B0C03F00F03174A35
:10183C00D35C7B60FB6803F48033002B10D0114B1E
:10184C005B685B0C03F00103114AD35CBB607B68E3
:10185C000D4A02FB03F2BB68B2FBF3F37B6104E0BD
:10186C007B680C4A02FB03F37B617B693B6102E002
:10187C00054B3B6100BF3B6918461C37BD4680BC1D
:10188C00704700BF0010024000127A006019000877
:10189C007019000800093D0080B485B000AF786075
:1018AC000A4B1B680A4AA2FB03235B0A7A6802FBF9
:1018BC0003F3FB6000BFFB685A1EFA60002BF9D1E2
:1018CC0000BF00BF1437BD4680BC7047200000200D
:1018DC00D34D621070B500260C4D0D4C641BA4103A
:1018EC00A64209D100F022F800260A4D0A4C641BCE
:1018FC00A410A64205D170BD55F8043B984701369B
:10190C00EEE755F8043B98470136F2E774190008E6
:10191C007419000874190008781900080346024469
:10192C00934200D1704703F8011BF9E7F8B500BFEB
:10193C00F8BC08BC9E467047F8B500BFF8BC08BCA4
:04194C009E467047FC
:10195000000000000000000001020304060708095F
:1019600002030405060708090A0B0C0D0E0F1010E0
:041970000102000070
:041974003101000835
:041978000D01000855
:10197C00010000000200000005000000040000004F
:10198C00030000000200000006000000030000003D
:0C199C0000127A001000000001000000A2
:0400000508000AE500
:00000001FF
